{
  "abi": [
    {
      "inputs": [],
      "stateMutability": "nonpayable",
      "type": "constructor"
    },
    {
      "anonymous": false,
      "inputs": [
        {
          "indexed": true,
          "internalType": "address",
          "name": "_tokenBSC",
          "type": "address"
        },
        {
          "indexed": true,
          "internalType": "address",
          "name": "_tokenFVM",
          "type": "address"
        },
        {
          "indexed": false,
          "internalType": "uint256",
          "name": "_timestamp",
          "type": "uint256"
        }
      ],
      "name": "AddSupportedToken",
      "type": "event"
    },
    {
      "anonymous": false,
      "inputs": [
        {
          "indexed": true,
          "internalType": "address",
          "name": "_to",
          "type": "address"
        },
        {
          "indexed": true,
          "internalType": "address",
          "name": "_tokenAddress",
          "type": "address"
        },
        {
          "indexed": false,
          "internalType": "uint256",
          "name": "_amount",
          "type": "uint256"
        },
        {
          "indexed": false,
          "internalType": "uint256",
          "name": "_timestamp",
          "type": "uint256"
        }
      ],
      "name": "GenericToken",
      "type": "event"
    },
    {
      "anonymous": false,
      "inputs": [
        {
          "indexed": false,
          "internalType": "address",
          "name": "lp",
          "type": "address"
        },
        {
          "indexed": false,
          "internalType": "address",
          "name": "token",
          "type": "address"
        },
        {
          "indexed": false,
          "internalType": "uint256",
          "name": "amount",
          "type": "uint256"
        }
      ],
      "name": "LiquidityProvided",
      "type": "event"
    },
    {
      "anonymous": false,
      "inputs": [
        {
          "indexed": true,
          "internalType": "address",
          "name": "_newAdmin",
          "type": "address"
        },
        {
          "indexed": false,
          "internalType": "uint256",
          "name": "_timestamp",
          "type": "uint256"
        }
      ],
      "name": "NewNodeManager",
      "type": "event"
    },
    {
      "anonymous": false,
      "inputs": [
        {
          "indexed": true,
          "internalType": "address",
          "name": "_newAdmin",
          "type": "address"
        },
        {
          "indexed": false,
          "internalType": "uint256",
          "name": "_timestamp",
          "type": "uint256"
        }
      ],
      "name": "NewVaultAdmin",
      "type": "event"
    },
    {
      "anonymous": false,
      "inputs": [
        {
          "indexed": true,
          "internalType": "address",
          "name": "_tokenDeposited",
          "type": "address"
        },
        {
          "indexed": true,
          "internalType": "address",
          "name": "from",
          "type": "address"
        },
        {
          "indexed": false,
          "internalType": "uint256",
          "name": "_amount",
          "type": "uint256"
        },
        {
          "indexed": false,
          "internalType": "uint256",
          "name": "_timestamp",
          "type": "uint256"
        }
      ],
      "name": "TokenDeposted",
      "type": "event"
    },
    {
      "anonymous": false,
      "inputs": [
        {
          "indexed": true,
          "internalType": "address",
          "name": "_tokenAddress",
          "type": "address"
        },
        {
          "indexed": true,
          "internalType": "address",
          "name": "from",
          "type": "address"
        },
        {
          "indexed": true,
          "internalType": "address",
          "name": "_to",
          "type": "address"
        },
        {
          "indexed": false,
          "internalType": "uint256",
          "name": "_amount",
          "type": "uint256"
        },
        {
          "indexed": false,
          "internalType": "uint256",
          "name": "_timestamp",
          "type": "uint256"
        }
      ],
      "name": "TokenTransfered",
      "type": "event"
    },
    {
      "inputs": [
        {
          "internalType": "contract IERC20",
          "name": "_ERCtoken",
          "type": "address"
        },
        {
          "internalType": "uint256",
          "name": "_amount",
          "type": "uint256"
        }
      ],
      "name": "addERC20Liquidity",
      "outputs": [],
      "stateMutability": "nonpayable",
      "type": "function"
    },
    {
      "inputs": [
        {
          "internalType": "address",
          "name": "_tokenBSC",
          "type": "address"
        },
        {
          "internalType": "address",
          "name": "_tokenFVM",
          "type": "address"
        }
      ],
      "name": "addTokenToBridge",
      "outputs": [],
      "stateMutability": "nonpayable",
      "type": "function"
    },
    {
      "inputs": [
        {
          "internalType": "uint256",
          "name": "_amount",
          "type": "uint256"
        },
        {
          "internalType": "address",
          "name": "_to",
          "type": "address"
        }
      ],
      "name": "adminPullOutNative",
      "outputs": [],
      "stateMutability": "nonpayable",
      "type": "function"
    },
    {
      "inputs": [
        {
          "internalType": "contract IERC20",
          "name": "_token",
          "type": "address"
        },
        {
          "internalType": "uint256",
          "name": "_amount",
          "type": "uint256"
        },
        {
          "internalType": "address",
          "name": "_to",
          "type": "address"
        }
      ],
      "name": "adminPullOutToken",
      "outputs": [],
      "stateMutability": "nonpayable",
      "type": "function"
    },
    {
      "inputs": [],
      "name": "bridgeFee",
      "outputs": [
        {
          "internalType": "uint256",
          "name": "",
          "type": "uint256"
        }
      ],
      "stateMutability": "view",
      "type": "function"
    },
    {
      "inputs": [
        {
          "internalType": "address",
          "name": "_tokenAddress",
          "type": "address"
        },
        {
          "internalType": "uint256",
          "name": "_amount",
          "type": "uint256"
        }
      ],
      "name": "checkLiquidity",
      "outputs": [
        {
          "internalType": "bool",
          "name": "liquidityStatus",
          "type": "bool"
        }
      ],
      "stateMutability": "view",
      "type": "function"
    },
    {
      "inputs": [
        {
          "internalType": "contract IERC20",
          "name": "_ERCtoken",
          "type": "address"
        },
        {
          "internalType": "uint256",
          "name": "_amount",
          "type": "uint256"
        }
      ],
      "name": "depositERC20Token",
      "outputs": [],
      "stateMutability": "nonpayable",
      "type": "function"
    },
    {
      "inputs": [
        {
          "internalType": "address",
          "name": "_token",
          "type": "address"
        }
      ],
      "name": "isTokenSupported",
      "outputs": [
        {
          "internalType": "bool",
          "name": "supported_",
          "type": "bool"
        }
      ],
      "stateMutability": "view",
      "type": "function"
    },
    {
      "inputs": [
        {
          "internalType": "address",
          "name": "",
          "type": "address"
        },
        {
          "internalType": "address",
          "name": "",
          "type": "address"
        }
      ],
      "name": "liquidty",
      "outputs": [
        {
          "internalType": "uint256",
          "name": "",
          "type": "uint256"
        }
      ],
      "stateMutability": "view",
      "type": "function"
    },
    {
      "inputs": [],
      "name": "nodeManager",
      "outputs": [
        {
          "internalType": "address",
          "name": "",
          "type": "address"
        }
      ],
      "stateMutability": "view",
      "type": "function"
    },
    {
      "inputs": [
        {
          "internalType": "address",
          "name": "_ERCtoken",
          "type": "address"
        },
        {
          "internalType": "address",
          "name": "_to",
          "type": "address"
        },
        {
          "internalType": "uint256",
          "name": "_amount",
          "type": "uint256"
        }
      ],
      "name": "nodeTransferTokenOut",
      "outputs": [],
      "stateMutability": "nonpayable",
      "type": "function"
    },
    {
      "inputs": [
        {
          "internalType": "address",
          "name": "_nodeManager",
          "type": "address"
        }
      ],
      "name": "setNodeManager",
      "outputs": [],
      "stateMutability": "nonpayable",
      "type": "function"
    },
    {
      "inputs": [
        {
          "internalType": "address",
          "name": "_newAdmin",
          "type": "address"
        }
      ],
      "name": "setVaultAdmin",
      "outputs": [],
      "stateMutability": "nonpayable",
      "type": "function"
    },
    {
      "inputs": [
        {
          "internalType": "address",
          "name": "",
          "type": "address"
        }
      ],
      "name": "supportedTokens",
      "outputs": [
        {
          "internalType": "address",
          "name": "",
          "type": "address"
        }
      ],
      "stateMutability": "view",
      "type": "function"
    },
    {
      "inputs": [],
      "name": "vaultAdmin",
      "outputs": [
        {
          "internalType": "address",
          "name": "",
          "type": "address"
        }
      ],
      "stateMutability": "view",
      "type": "function"
    },
    {
      "stateMutability": "payable",
      "type": "receive"
    }
  ],
  "bytecode": {
    "object": "0x608060405234801561001057600080fd5b50600280546001600160a01b03191633179055610f6a806100326000396000f3fe6080604052600436106100ec5760003560e01c806377bdfcc21161008a578063e246c0b411610059578063e246c0b4146102a1578063e7f6f225146102c1578063ec1e9224146102e1578063f3c6057c1461031957600080fd5b806377bdfcc21461021d57806382b12dd71461023d5780639bb5cd3f14610261578063b5a877211461028157600080fd5b80632039d9fd116100c65780632039d9fd1461015a57806324ce57711461017a57806368c4ac26146101af57806375151b63146101fd57600080fd5b80630988db4c146100f85780630ef1f6531461011a5780631319e7e11461013a57600080fd5b366100f357005b600080fd5b34801561010457600080fd5b50610118610113366004610d02565b610339565b005b34801561012657600080fd5b50610118610135366004610d26565b61039f565b34801561014657600080fd5b50610118610155366004610d02565b610413565b34801561016657600080fd5b50610118610175366004610d26565b610472565b34801561018657600080fd5b5061019a610195366004610d26565b6104e3565b60405190151581526020015b60405180910390f35b3480156101bb57600080fd5b506101e56101ca366004610d02565b6004602052600090815260409020546001600160a01b031681565b6040516001600160a01b0390911681526020016101a6565b34801561020957600080fd5b5061019a610218366004610d02565b610539565b34801561022957600080fd5b50610118610238366004610d52565b61056a565b34801561024957600080fd5b5061025360015481565b6040519081526020016101a6565b34801561026d57600080fd5b506003546101e5906001600160a01b031681565b34801561028d57600080fd5b5061011861029c366004610d82565b61062a565b3480156102ad57600080fd5b506101186102bc366004610db0565b6106b6565b3480156102cd57600080fd5b506002546101e5906001600160a01b031681565b3480156102ed57600080fd5b506102536102fc366004610d82565b600560209081526000928352604080842090915290825290205481565b34801561032557600080fd5b50610118610334366004610df1565b61081d565b61034281610854565b61034a6108ad565b600280546001600160a01b0319166001600160a01b0383169081179091556040514281527f629b62e1b9a4af8f0e786b0bea2c0ee15425392ee619597bef7fba7ecbce9137906020015b60405180910390a250565b6103a882610854565b6103b18161092f565b6103c66001600160a01b03831633308461097f565b604080513381526001600160a01b03841660208201529081018290527f05e7be2689d5d20fd06bc749aa0d767080c4216945cacf5249f739d5a561d48f9060600160405180910390a15050565b61041c81610854565b6104246108ad565b600380546001600160a01b0319166001600160a01b0383169081179091556040514281527f231c2a1e716723cc53e21dc3ea1b41b53e3616daf81a76e8b409da8f46f41b0390602001610394565b61047b82610854565b6104848161092f565b6104996001600160a01b03831633308461097f565b6040805182815242602082015233916001600160a01b038516917fdf3b8986f2ff4695409163be793bdcc929ec852d68db7e951a65bb123f9d4fa791015b60405180910390a35050565b60006104ee83610539565b1561052f576001600160a01b03808416600090815260046020526040902054839161051991166109f0565b10610525576001610528565b60005b9050610533565b5060005b92915050565b6001600160a01b0381811660009081526004602052604081205490911615610562576001610533565b600092915050565b61057381610854565b61057c8261092f565b6105846108ad565b6000816001600160a01b03168360405160006040518083038185875af1925050503d80600081146105d1576040519150601f19603f3d011682016040523d82523d6000602084013e6105d6565b606091505b50509050806106255760405162461bcd60e51b815260206004820152601660248201527511985a5b1959081d1bc81cd95b9908119a5b081bdd5d60521b60448201526064015b60405180910390fd5b505050565b61063382610854565b61063c81610854565b6106446108ad565b6001600160a01b0380831660008181526004602052604080822080549486166001600160a01b03199586168117909155808352918190208054909416831790935591517fb2b6a5b915e1f866ec1e424dd31cb063871896a2abbe44d7bc7f2b14df6669a6906104d79042815260200190565b6003546001600160a01b031633146107105760405162461bcd60e51b815260206004820152601760248201527f41646472657373206e6f74206e6f64654d616e61676572000000000000000000604482015260640161061c565b61071982610854565b6107228161092f565b6000600154670de0b6b3a764000061073a9190610e49565b6107449083610e60565b6001600160a01b0380861660009081526004602052604090205491925016806107a35760405162461bcd60e51b81526020600482015260116024820152702ab739bab83837b93a32b2103a37b5b2b760791b604482015260640161061c565b6107b76001600160a01b0382168584610a5b565b6001546000808282546107ca9190610e73565b909155505060408051838152426020820152309133916001600160a01b038916917f50957f11e3b2e65c8ab1744134153c0b1f047112e49d1d0288a9edd6a7716e12910160405180910390a45050505050565b61082683610854565b61082f81610854565b6108388261092f565b6108406108ad565b6106256001600160a01b0384168284610a5b565b6001600160a01b0381166108aa5760405162461bcd60e51b815260206004820152601760248201527f4e6f2061646472657373207a65726f20616c6c6f776564000000000000000000604482015260640161061c565b50565b6002546001600160a01b0316331461092d5760405162461bcd60e51b815260206004820152603860248201527f4f6e6c79207468652063757272656e74207661756c742061646d696e2063616e60448201527f20706572666f726d2074686973206f7065726174696f6e2e0000000000000000606482015260840161061c565b565b600081116108aa5760405162461bcd60e51b815260206004820181905260248201527f416d6f756e74206d7573742062652067726561746572207468616e207a65726f604482015260640161061c565b6040516001600160a01b03808516602483015283166044820152606481018290526109ea9085906323b872dd60e01b906084015b60408051601f198184030181529190526020810180516001600160e01b03166001600160e01b031990931692909217909152610a8b565b50505050565b6040516370a0823160e01b81523060048201526000906001600160a01b038316906370a0823190602401602060405180830381865afa158015610a37573d6000803e3d6000fd5b505050506040513d601f19601f820116820180604052508101906105339190610e86565b6040516001600160a01b03831660248201526044810182905261062590849063a9059cbb60e01b906064016109b3565b6000610ae0826040518060400160405280602081526020017f5361666545524332303a206c6f772d6c6576656c2063616c6c206661696c6564815250856001600160a01b0316610b5d9092919063ffffffff16565b8051909150156106255780806020019051810190610afe9190610e9f565b6106255760405162461bcd60e51b815260206004820152602a60248201527f5361666545524332303a204552433230206f7065726174696f6e20646964206e6044820152691bdd081cdd58d8d9595960b21b606482015260840161061c565b6060610b6c8484600085610b74565b949350505050565b606082471015610bd55760405162461bcd60e51b815260206004820152602660248201527f416464726573733a20696e73756666696369656e742062616c616e636520666f6044820152651c8818d85b1b60d21b606482015260840161061c565b600080866001600160a01b03168587604051610bf19190610ee5565b60006040518083038185875af1925050503d8060008114610c2e576040519150601f19603f3d011682016040523d82523d6000602084013e610c33565b606091505b5091509150610c4487838387610c4f565b979650505050505050565b60608315610cbe578251600003610cb7576001600160a01b0385163b610cb75760405162461bcd60e51b815260206004820152601d60248201527f416464726573733a2063616c6c20746f206e6f6e2d636f6e7472616374000000604482015260640161061c565b5081610b6c565b610b6c8383815115610cd35781518083602001fd5b8060405162461bcd60e51b815260040161061c9190610f01565b6001600160a01b03811681146108aa57600080fd5b600060208284031215610d1457600080fd5b8135610d1f81610ced565b9392505050565b60008060408385031215610d3957600080fd5b8235610d4481610ced565b946020939093013593505050565b60008060408385031215610d6557600080fd5b823591506020830135610d7781610ced565b809150509250929050565b60008060408385031215610d9557600080fd5b8235610da081610ced565b91506020830135610d7781610ced565b600080600060608486031215610dc557600080fd5b8335610dd081610ced565b92506020840135610de081610ced565b929592945050506040919091013590565b600080600060608486031215610e0657600080fd5b8335610e1181610ced565b9250602084013591506040840135610e2881610ced565b809150509250925092565b634e487b7160e01b600052601160045260246000fd5b808202811582820484141761053357610533610e33565b8181038181111561053357610533610e33565b8082018082111561053357610533610e33565b600060208284031215610e9857600080fd5b5051919050565b600060208284031215610eb157600080fd5b81518015158114610d1f57600080fd5b60005b83811015610edc578181015183820152602001610ec4565b50506000910152565b60008251610ef7818460208701610ec1565b9190910192915050565b6020815260008251806020840152610f20816040850160208701610ec1565b601f01601f1916919091016040019291505056fea2646970667358221220229975b18f6c48c48b01479b4c4637a7fcbfaa5dc41bc9d0fb57f75a35fceac864736f6c63430008110033",
    "linkReferences": {}
  },
  "methodIdentifiers": {
    "addERC20Liquidity(address,uint256)": "0ef1f653",
    "addTokenToBridge(address,address)": "b5a87721",
    "adminPullOutNative(uint256,address)": "77bdfcc2",
    "adminPullOutToken(address,uint256,address)": "f3c6057c",
    "bridgeFee()": "82b12dd7",
    "checkLiquidity(address,uint256)": "24ce5771",
    "depositERC20Token(address,uint256)": "2039d9fd",
    "isTokenSupported(address)": "75151b63",
    "liquidty(address,address)": "ec1e9224",
    "nodeManager()": "9bb5cd3f",
    "nodeTransferTokenOut(address,address,uint256)": "e246c0b4",
    "setNodeManager(address)": "1319e7e1",
    "setVaultAdmin(address)": "0988db4c",
    "supportedTokens(address)": "68c4ac26",
    "vaultAdmin()": "e7f6f225"
  },
  "id": 0
}