{
  "abi": [
    {
      "inputs": [],
      "stateMutability": "nonpayable",
      "type": "constructor"
    },
    {
      "anonymous": false,
      "inputs": [
        {
          "indexed": true,
          "internalType": "address",
          "name": "_tokenBSC",
          "type": "address"
        },
        {
          "indexed": true,
          "internalType": "address",
          "name": "_tokenFVM",
          "type": "address"
        },
        {
          "indexed": false,
          "internalType": "uint256",
          "name": "_timestamp",
          "type": "uint256"
        }
      ],
      "name": "AddSupportedToken",
      "type": "event"
    },
    {
      "anonymous": false,
      "inputs": [
        {
          "indexed": true,
          "internalType": "address",
          "name": "_to",
          "type": "address"
        },
        {
          "indexed": true,
          "internalType": "address",
          "name": "_tokenAddress",
          "type": "address"
        },
        {
          "indexed": false,
          "internalType": "uint256",
          "name": "_amount",
          "type": "uint256"
        },
        {
          "indexed": false,
          "internalType": "uint256",
          "name": "_timestamp",
          "type": "uint256"
        }
      ],
      "name": "GenericToken",
      "type": "event"
    },
    {
      "anonymous": false,
      "inputs": [
        {
          "indexed": false,
          "internalType": "address",
          "name": "lp",
          "type": "address"
        },
        {
          "indexed": false,
          "internalType": "address",
          "name": "token",
          "type": "address"
        },
        {
          "indexed": false,
          "internalType": "uint256",
          "name": "amount",
          "type": "uint256"
        }
      ],
      "name": "LiquidityProvided",
      "type": "event"
    },
    {
      "anonymous": false,
      "inputs": [
        {
          "indexed": true,
          "internalType": "address",
          "name": "_newAdmin",
          "type": "address"
        },
        {
          "indexed": false,
          "internalType": "uint256",
          "name": "_timestamp",
          "type": "uint256"
        }
      ],
      "name": "NewNodeManager",
      "type": "event"
    },
    {
      "anonymous": false,
      "inputs": [
        {
          "indexed": true,
          "internalType": "address",
          "name": "_newAdmin",
          "type": "address"
        },
        {
          "indexed": false,
          "internalType": "uint256",
          "name": "_timestamp",
          "type": "uint256"
        }
      ],
      "name": "NewVaultAdmin",
      "type": "event"
    },
    {
      "anonymous": false,
      "inputs": [
        {
          "indexed": true,
          "internalType": "address",
          "name": "_tokenDeposited",
          "type": "address"
        },
        {
          "indexed": true,
          "internalType": "address",
          "name": "from",
          "type": "address"
        },
        {
          "indexed": false,
          "internalType": "uint256",
          "name": "_amount",
          "type": "uint256"
        },
        {
          "indexed": false,
          "internalType": "uint256",
          "name": "_timestamp",
          "type": "uint256"
        }
      ],
      "name": "TokenDeposted",
      "type": "event"
    },
    {
      "anonymous": false,
      "inputs": [
        {
          "indexed": true,
          "internalType": "address",
          "name": "_tokenAddress",
          "type": "address"
        },
        {
          "indexed": true,
          "internalType": "address",
          "name": "from",
          "type": "address"
        },
        {
          "indexed": true,
          "internalType": "address",
          "name": "_to",
          "type": "address"
        },
        {
          "indexed": false,
          "internalType": "uint256",
          "name": "_amount",
          "type": "uint256"
        },
        {
          "indexed": false,
          "internalType": "uint256",
          "name": "_timestamp",
          "type": "uint256"
        }
      ],
      "name": "TokenTransfered",
      "type": "event"
    },
    {
      "inputs": [
        {
          "internalType": "contract IERC20",
          "name": "_ERCtoken",
          "type": "address"
        },
        {
          "internalType": "uint256",
          "name": "_amount",
          "type": "uint256"
        }
      ],
      "name": "addERC20Liquidity",
      "outputs": [],
      "stateMutability": "nonpayable",
      "type": "function"
    },
    {
      "inputs": [],
      "name": "addLiquidityNative",
      "outputs": [],
      "stateMutability": "payable",
      "type": "function"
    },
    {
      "inputs": [
        {
          "internalType": "address",
          "name": "_tokenBSC",
          "type": "address"
        },
        {
          "internalType": "address",
          "name": "_tokenFVM",
          "type": "address"
        }
      ],
      "name": "addTokenToBridge",
      "outputs": [],
      "stateMutability": "nonpayable",
      "type": "function"
    },
    {
      "inputs": [
        {
          "internalType": "uint256",
          "name": "_amount",
          "type": "uint256"
        },
        {
          "internalType": "address",
          "name": "_to",
          "type": "address"
        }
      ],
      "name": "adminPullOutNative",
      "outputs": [],
      "stateMutability": "nonpayable",
      "type": "function"
    },
    {
      "inputs": [
        {
          "internalType": "contract IERC20",
          "name": "_token",
          "type": "address"
        },
        {
          "internalType": "uint256",
          "name": "_amount",
          "type": "uint256"
        },
        {
          "internalType": "address",
          "name": "_to",
          "type": "address"
        }
      ],
      "name": "adminPullOutToken",
      "outputs": [],
      "stateMutability": "nonpayable",
      "type": "function"
    },
    {
      "inputs": [],
      "name": "bridgeFee",
      "outputs": [
        {
          "internalType": "uint256",
          "name": "",
          "type": "uint256"
        }
      ],
      "stateMutability": "view",
      "type": "function"
    },
    {
      "inputs": [
        {
          "internalType": "address",
          "name": "_tokenAddress",
          "type": "address"
        },
        {
          "internalType": "uint256",
          "name": "_amount",
          "type": "uint256"
        }
      ],
      "name": "checkLiquidity",
      "outputs": [
        {
          "internalType": "bool",
          "name": "liquidityStatus",
          "type": "bool"
        }
      ],
      "stateMutability": "view",
      "type": "function"
    },
    {
      "inputs": [
        {
          "internalType": "contract IERC20",
          "name": "_ERCtoken",
          "type": "address"
        },
        {
          "internalType": "uint256",
          "name": "_amount",
          "type": "uint256"
        }
      ],
      "name": "depositERC20Token",
      "outputs": [],
      "stateMutability": "nonpayable",
      "type": "function"
    },
    {
      "inputs": [],
      "name": "depositNativeTokenIntoVault",
      "outputs": [],
      "stateMutability": "payable",
      "type": "function"
    },
    {
      "inputs": [
        {
          "internalType": "address",
          "name": "_token",
          "type": "address"
        }
      ],
      "name": "isTokenSupported",
      "outputs": [
        {
          "internalType": "bool",
          "name": "supported_",
          "type": "bool"
        }
      ],
      "stateMutability": "view",
      "type": "function"
    },
    {
      "inputs": [],
      "name": "nodeManager",
      "outputs": [
        {
          "internalType": "address",
          "name": "",
          "type": "address"
        }
      ],
      "stateMutability": "view",
      "type": "function"
    },
    {
      "inputs": [
        {
          "internalType": "address",
          "name": "_ERCtoken",
          "type": "address"
        },
        {
          "internalType": "address",
          "name": "_to",
          "type": "address"
        },
        {
          "internalType": "uint256",
          "name": "_amount",
          "type": "uint256"
        }
      ],
      "name": "nodeTransferTokenOut",
      "outputs": [],
      "stateMutability": "nonpayable",
      "type": "function"
    },
    {
      "inputs": [
        {
          "internalType": "uint256",
          "name": "_fee",
          "type": "uint256"
        }
      ],
      "name": "setBridgeFee",
      "outputs": [],
      "stateMutability": "nonpayable",
      "type": "function"
    },
    {
      "inputs": [
        {
          "internalType": "address",
          "name": "_nodeManager",
          "type": "address"
        }
      ],
      "name": "setNodeManager",
      "outputs": [],
      "stateMutability": "nonpayable",
      "type": "function"
    },
    {
      "inputs": [
        {
          "internalType": "address",
          "name": "_newAdmin",
          "type": "address"
        }
      ],
      "name": "setVaultAdmin",
      "outputs": [],
      "stateMutability": "nonpayable",
      "type": "function"
    },
    {
      "inputs": [
        {
          "internalType": "address",
          "name": "",
          "type": "address"
        }
      ],
      "name": "supportedTokens",
      "outputs": [
        {
          "internalType": "address",
          "name": "",
          "type": "address"
        }
      ],
      "stateMutability": "view",
      "type": "function"
    },
    {
      "inputs": [],
      "name": "vaultAdmin",
      "outputs": [
        {
          "internalType": "address",
          "name": "",
          "type": "address"
        }
      ],
      "stateMutability": "view",
      "type": "function"
    },
    {
      "stateMutability": "payable",
      "type": "receive"
    }
  ],
  "bytecode": {
    "object": "0x608060405234801561001057600080fd5b50600280546001600160a01b031916331790556110f0806100326000396000f3fe6080604052600436106101025760003560e01c806375fcb1b3116100955780639bb5cd3f116100645780639bb5cd3f146102a7578063b5a87721146102c7578063e246c0b4146102e7578063e7f6f22514610307578063f3c6057c1461032757600080fd5b806375fcb1b31461023b57806377bdfcc21461024357806382b12dd714610263578063998cdf831461028757600080fd5b80632039d9fd116100d15780632039d9fd1461017857806324ce57711461019857806368c4ac26146101cd57806375151b631461021b57600080fd5b80630988db4c1461010e5780630ef1f653146101305780631319e7e11461015057806315f6825f1461017057600080fd5b3661010957005b600080fd5b34801561011a57600080fd5b5061012e610129366004610e6f565b610347565b005b34801561013c57600080fd5b5061012e61014b366004610e93565b6103ad565b34801561015c57600080fd5b5061012e61016b366004610e6f565b610421565b61012e610480565b34801561018457600080fd5b5061012e610193366004610e93565b6104cb565b3480156101a457600080fd5b506101b86101b3366004610e93565b61053c565b60405190151581526020015b60405180910390f35b3480156101d957600080fd5b506102036101e8366004610e6f565b6004602052600090815260409020546001600160a01b031681565b6040516001600160a01b0390911681526020016101c4565b34801561022757600080fd5b506101b8610236366004610e6f565b610592565b61012e6105c3565b34801561024f57600080fd5b5061012e61025e366004610ebf565b610610565b34801561026f57600080fd5b5061027960015481565b6040519081526020016101c4565b34801561029357600080fd5b5061012e6102a2366004610eef565b6106d0565b3480156102b357600080fd5b50600354610203906001600160a01b031681565b3480156102d357600080fd5b5061012e6102e2366004610f08565b6106dd565b3480156102f357600080fd5b5061012e610302366004610f36565b610769565b34801561031357600080fd5b50600254610203906001600160a01b031681565b34801561033357600080fd5b5061012e610342366004610f77565b61098a565b610350816109c1565b610358610a1a565b600280546001600160a01b0319166001600160a01b0383169081179091556040514281527f629b62e1b9a4af8f0e786b0bea2c0ee15425392ee619597bef7fba7ecbce9137906020015b60405180910390a250565b6103b6826109c1565b6103bf81610a9c565b6103d46001600160a01b038316333084610aec565b604080513381526001600160a01b03841660208201529081018290527f05e7be2689d5d20fd06bc749aa0d767080c4216945cacf5249f739d5a561d48f9060600160405180910390a15050565b61042a816109c1565b610432610a1a565b600380546001600160a01b0319166001600160a01b0383169081179091556040514281527f231c2a1e716723cc53e21dc3ea1b41b53e3616daf81a76e8b409da8f46f41b03906020016103a2565b61048934610a9c565b6040805134815242602082015233916001609d1b917fdf3b8986f2ff4695409163be793bdcc929ec852d68db7e951a65bb123f9d4fa7910160405180910390a3565b6104d4826109c1565b6104dd81610a9c565b6104f26001600160a01b038316333084610aec565b6040805182815242602082015233916001600160a01b038516917fdf3b8986f2ff4695409163be793bdcc929ec852d68db7e951a65bb123f9d4fa791015b60405180910390a35050565b600061054783610592565b15610588576001600160a01b0380841660009081526004602052604090205483916105729116610b5d565b1061057e576001610581565b60005b905061058c565b5060005b92915050565b6001600160a01b03818116600090815260046020526040812054909116156105bb57600161058c565b600092915050565b6105cc34610a9c565b604080513381526001609d1b6020820152348183015290517f05e7be2689d5d20fd06bc749aa0d767080c4216945cacf5249f739d5a561d48f9181900360600190a1565b610619816109c1565b61062282610a9c565b61062a610a1a565b6000816001600160a01b03168360405160006040518083038185875af1925050503d8060008114610677576040519150601f19603f3d011682016040523d82523d6000602084013e61067c565b606091505b50509050806106cb5760405162461bcd60e51b815260206004820152601660248201527511985a5b1959081d1bc81cd95b9908119a5b081bdd5d60521b60448201526064015b60405180910390fd5b505050565b6106d8610a1a565b600155565b6106e6826109c1565b6106ef816109c1565b6106f7610a1a565b6001600160a01b0380831660008181526004602052604080822080549486166001600160a01b03199586168117909155808352918190208054909416831790935591517fb2b6a5b915e1f866ec1e424dd31cb063871896a2abbe44d7bc7f2b14df6669a6906105309042815260200190565b6003546001600160a01b031633146107c35760405162461bcd60e51b815260206004820152601760248201527f41646472657373206e6f74206e6f64654d616e6167657200000000000000000060448201526064016106c2565b6107cc826109c1565b6107d581610a9c565b6000600154670de0b6b3a76400006107ed9190610fcf565b6107f79083610fe6565b6001600160a01b0380861660009081526004602052604090205491925016806108565760405162461bcd60e51b81526020600482015260116024820152702ab739bab83837b93a32b2103a37b5b2b760791b60448201526064016106c2565b60016001609d1b03196001600160a01b03861601610910576000846001600160a01b03168360405160006040518083038185875af1925050503d80600081146108bb576040519150601f19603f3d011682016040523d82523d6000602084013e6108c0565b606091505b505090508061090a5760405162461bcd60e51b815260206004820152601660248201527511985a5b1959081d1bc81cd95b9908119a5b081bdd5d60521b60448201526064016106c2565b50610924565b6109246001600160a01b0382168584610bc8565b6001546000808282546109379190610ff9565b909155505060408051838152426020820152309133916001600160a01b038916917f50957f11e3b2e65c8ab1744134153c0b1f047112e49d1d0288a9edd6a7716e12910160405180910390a45050505050565b610993836109c1565b61099c816109c1565b6109a582610a9c565b6109ad610a1a565b6106cb6001600160a01b0384168284610bc8565b6001600160a01b038116610a175760405162461bcd60e51b815260206004820152601760248201527f4e6f2061646472657373207a65726f20616c6c6f77656400000000000000000060448201526064016106c2565b50565b6002546001600160a01b03163314610a9a5760405162461bcd60e51b815260206004820152603860248201527f4f6e6c79207468652063757272656e74207661756c742061646d696e2063616e60448201527f20706572666f726d2074686973206f7065726174696f6e2e000000000000000060648201526084016106c2565b565b60008111610a175760405162461bcd60e51b815260206004820181905260248201527f416d6f756e74206d7573742062652067726561746572207468616e207a65726f60448201526064016106c2565b6040516001600160a01b0380851660248301528316604482015260648101829052610b579085906323b872dd60e01b906084015b60408051601f198184030181529190526020810180516001600160e01b03166001600160e01b031990931692909217909152610bf8565b50505050565b6040516370a0823160e01b81523060048201526000906001600160a01b038316906370a0823190602401602060405180830381865afa158015610ba4573d6000803e3d6000fd5b505050506040513d601f19601f8201168201806040525081019061058c919061100c565b6040516001600160a01b0383166024820152604481018290526106cb90849063a9059cbb60e01b90606401610b20565b6000610c4d826040518060400160405280602081526020017f5361666545524332303a206c6f772d6c6576656c2063616c6c206661696c6564815250856001600160a01b0316610cca9092919063ffffffff16565b8051909150156106cb5780806020019051810190610c6b9190611025565b6106cb5760405162461bcd60e51b815260206004820152602a60248201527f5361666545524332303a204552433230206f7065726174696f6e20646964206e6044820152691bdd081cdd58d8d9595960b21b60648201526084016106c2565b6060610cd98484600085610ce1565b949350505050565b606082471015610d425760405162461bcd60e51b815260206004820152602660248201527f416464726573733a20696e73756666696369656e742062616c616e636520666f6044820152651c8818d85b1b60d21b60648201526084016106c2565b600080866001600160a01b03168587604051610d5e919061106b565b60006040518083038185875af1925050503d8060008114610d9b576040519150601f19603f3d011682016040523d82523d6000602084013e610da0565b606091505b5091509150610db187838387610dbc565b979650505050505050565b60608315610e2b578251600003610e24576001600160a01b0385163b610e245760405162461bcd60e51b815260206004820152601d60248201527f416464726573733a2063616c6c20746f206e6f6e2d636f6e747261637400000060448201526064016106c2565b5081610cd9565b610cd98383815115610e405781518083602001fd5b8060405162461bcd60e51b81526004016106c29190611087565b6001600160a01b0381168114610a1757600080fd5b600060208284031215610e8157600080fd5b8135610e8c81610e5a565b9392505050565b60008060408385031215610ea657600080fd5b8235610eb181610e5a565b946020939093013593505050565b60008060408385031215610ed257600080fd5b823591506020830135610ee481610e5a565b809150509250929050565b600060208284031215610f0157600080fd5b5035919050565b60008060408385031215610f1b57600080fd5b8235610f2681610e5a565b91506020830135610ee481610e5a565b600080600060608486031215610f4b57600080fd5b8335610f5681610e5a565b92506020840135610f6681610e5a565b929592945050506040919091013590565b600080600060608486031215610f8c57600080fd5b8335610f9781610e5a565b9250602084013591506040840135610fae81610e5a565b809150509250925092565b634e487b7160e01b600052601160045260246000fd5b808202811582820484141761058c5761058c610fb9565b8181038181111561058c5761058c610fb9565b8082018082111561058c5761058c610fb9565b60006020828403121561101e57600080fd5b5051919050565b60006020828403121561103757600080fd5b81518015158114610e8c57600080fd5b60005b8381101561106257818101518382015260200161104a565b50506000910152565b6000825161107d818460208701611047565b9190910192915050565b60208152600082518060208401526110a6816040850160208701611047565b601f01601f1916919091016040019291505056fea2646970667358221220e125b71980a45571425eacafc6a1352605fb3025c32b9d5a8fa9afa8442e21d664736f6c63430008110033",
    "linkReferences": {}
  },
  "methodIdentifiers": {
    "addERC20Liquidity(address,uint256)": "0ef1f653",
    "addLiquidityNative()": "75fcb1b3",
    "addTokenToBridge(address,address)": "b5a87721",
    "adminPullOutNative(uint256,address)": "77bdfcc2",
    "adminPullOutToken(address,uint256,address)": "f3c6057c",
    "bridgeFee()": "82b12dd7",
    "checkLiquidity(address,uint256)": "24ce5771",
    "depositERC20Token(address,uint256)": "2039d9fd",
    "depositNativeTokenIntoVault()": "15f6825f",
    "isTokenSupported(address)": "75151b63",
    "nodeManager()": "9bb5cd3f",
    "nodeTransferTokenOut(address,address,uint256)": "e246c0b4",
    "setBridgeFee(uint256)": "998cdf83",
    "setNodeManager(address)": "1319e7e1",
    "setVaultAdmin(address)": "0988db4c",
    "supportedTokens(address)": "68c4ac26",
    "vaultAdmin()": "e7f6f225"
  },
  "id": 1
}